{
  "_format": "hh-sol-artifact-1",
  "contractName": "SilkRoad",
  "sourceName": "src/backend/contracts/SilkRoad.sol",
  "abi": [
    {
      "inputs": [
        {
          "internalType": "uint256",
          "name": "_feePercent",
          "type": "uint256"
        }
      ],
      "stateMutability": "nonpayable",
      "type": "constructor"
    },
    {
      "anonymous": false,
      "inputs": [
        {
          "indexed": false,
          "internalType": "uint256",
          "name": "itemId",
          "type": "uint256"
        },
        {
          "indexed": true,
          "internalType": "address",
          "name": "nft",
          "type": "address"
        },
        {
          "indexed": false,
          "internalType": "uint256",
          "name": "tokenId",
          "type": "uint256"
        },
        {
          "indexed": false,
          "internalType": "uint256",
          "name": "price",
          "type": "uint256"
        },
        {
          "indexed": true,
          "internalType": "address",
          "name": "seller",
          "type": "address"
        },
        {
          "indexed": true,
          "internalType": "address",
          "name": "buyer",
          "type": "address"
        },
        {
          "indexed": false,
          "internalType": "bool",
          "name": "dConfirm",
          "type": "bool"
        },
        {
          "indexed": false,
          "internalType": "bool",
          "name": "mConfirm",
          "type": "bool"
        }
      ],
      "name": "Bought",
      "type": "event"
    },
    {
      "anonymous": false,
      "inputs": [
        {
          "indexed": false,
          "internalType": "uint256",
          "name": "itemId",
          "type": "uint256"
        },
        {
          "indexed": true,
          "internalType": "address",
          "name": "nft",
          "type": "address"
        },
        {
          "indexed": false,
          "internalType": "uint256",
          "name": "tokenId",
          "type": "uint256"
        },
        {
          "indexed": false,
          "internalType": "uint256",
          "name": "price",
          "type": "uint256"
        },
        {
          "indexed": true,
          "internalType": "address",
          "name": "seller",
          "type": "address"
        }
      ],
      "name": "Offered",
      "type": "event"
    },
    {
      "inputs": [
        {
          "internalType": "uint256",
          "name": "_itemId",
          "type": "uint256"
        }
      ],
      "name": "confirmBuyer",
      "outputs": [],
      "stateMutability": "nonpayable",
      "type": "function"
    },
    {
      "inputs": [
        {
          "internalType": "uint256",
          "name": "_itemId",
          "type": "uint256"
        }
      ],
      "name": "confirmDesigner",
      "outputs": [],
      "stateMutability": "nonpayable",
      "type": "function"
    },
    {
      "inputs": [
        {
          "internalType": "uint256",
          "name": "_itemId",
          "type": "uint256"
        }
      ],
      "name": "confirmManifacturer",
      "outputs": [],
      "stateMutability": "nonpayable",
      "type": "function"
    },
    {
      "inputs": [],
      "name": "feeAccount",
      "outputs": [
        {
          "internalType": "address payable",
          "name": "",
          "type": "address"
        }
      ],
      "stateMutability": "view",
      "type": "function"
    },
    {
      "inputs": [],
      "name": "feePercent",
      "outputs": [
        {
          "internalType": "uint256",
          "name": "",
          "type": "uint256"
        }
      ],
      "stateMutability": "view",
      "type": "function"
    },
    {
      "inputs": [
        {
          "internalType": "uint256",
          "name": "_itemId",
          "type": "uint256"
        }
      ],
      "name": "getPercentage",
      "outputs": [
        {
          "internalType": "uint256",
          "name": "",
          "type": "uint256"
        }
      ],
      "stateMutability": "view",
      "type": "function"
    },
    {
      "inputs": [
        {
          "internalType": "uint256",
          "name": "_itemId",
          "type": "uint256"
        }
      ],
      "name": "getTotalPrice",
      "outputs": [
        {
          "internalType": "uint256",
          "name": "",
          "type": "uint256"
        }
      ],
      "stateMutability": "view",
      "type": "function"
    },
    {
      "inputs": [],
      "name": "itemCount",
      "outputs": [
        {
          "internalType": "uint256",
          "name": "",
          "type": "uint256"
        }
      ],
      "stateMutability": "view",
      "type": "function"
    },
    {
      "inputs": [
        {
          "internalType": "uint256",
          "name": "",
          "type": "uint256"
        }
      ],
      "name": "items",
      "outputs": [
        {
          "internalType": "uint256",
          "name": "itemId",
          "type": "uint256"
        },
        {
          "internalType": "contract IERC721",
          "name": "nft",
          "type": "address"
        },
        {
          "internalType": "uint256",
          "name": "tokenId",
          "type": "uint256"
        },
        {
          "internalType": "uint256",
          "name": "price",
          "type": "uint256"
        },
        {
          "internalType": "uint256",
          "name": "percent",
          "type": "uint256"
        },
        {
          "internalType": "address payable",
          "name": "seller",
          "type": "address"
        },
        {
          "internalType": "address payable",
          "name": "manifacturer",
          "type": "address"
        },
        {
          "internalType": "address payable",
          "name": "buyer",
          "type": "address"
        },
        {
          "internalType": "bool",
          "name": "sold",
          "type": "bool"
        },
        {
          "internalType": "bool",
          "name": "dConfirm",
          "type": "bool"
        },
        {
          "internalType": "bool",
          "name": "mConfirm",
          "type": "bool"
        },
        {
          "internalType": "bool",
          "name": "bConfirm",
          "type": "bool"
        }
      ],
      "stateMutability": "view",
      "type": "function"
    },
    {
      "inputs": [
        {
          "internalType": "contract IERC721",
          "name": "_nft",
          "type": "address"
        },
        {
          "internalType": "uint256",
          "name": "_tokenId",
          "type": "uint256"
        },
        {
          "internalType": "uint256",
          "name": "_price",
          "type": "uint256"
        },
        {
          "internalType": "uint256",
          "name": "_percent",
          "type": "uint256"
        }
      ],
      "name": "makeItem",
      "outputs": [],
      "stateMutability": "nonpayable",
      "type": "function"
    },
    {
      "inputs": [
        {
          "internalType": "uint256",
          "name": "_itemId",
          "type": "uint256"
        }
      ],
      "name": "purchaseItem",
      "outputs": [],
      "stateMutability": "payable",
      "type": "function"
    }
  ],
  "bytecode": "0x60c06040523480156200001157600080fd5b506040516200176f3803806200176f83398181016040528101906200003791906200009c565b60016000819055503373ffffffffffffffffffffffffffffffffffffffff1660808173ffffffffffffffffffffffffffffffffffffffff1660601b815250508060a0818152505050620000ec565b6000815190506200009681620000d2565b92915050565b600060208284031215620000af57600080fd5b6000620000bf8482850162000085565b91505092915050565b6000819050919050565b620000dd81620000c8565b8114620000e957600080fd5b50565b60805160601c60a05161164c62000123600039600081816107760152610c280152600081816102a601526108d0015261164c6000f3fe60806040526004361061009c5760003560e01c8063a5c4ba1111610064578063a5c4ba1114610174578063bd2de0171461019d578063bfb231d2146101c6578063ca7dd3751461020e578063d38ea5bf1461024b578063e161c3bf146102675761009c565b806365e17c9d146100a1578063696aae08146100cc5780636bfb0d01146100f55780636ffd2883146101205780637fd6f15c14610149575b600080fd5b3480156100ad57600080fd5b506100b66102a4565b6040516100c39190611047565b60405180910390f35b3480156100d857600080fd5b506100f360048036038101906100ee9190610ec1565b6102c8565b005b34801561010157600080fd5b5061010a6106f3565b6040516101179190611139565b60405180910390f35b34801561012c57600080fd5b5061014760048036038101906101429190610f24565b6106f9565b005b34801561015557600080fd5b5061015e610774565b60405161016b9190611139565b60405180910390f35b34801561018057600080fd5b5061019b60048036038101906101969190610f24565b610798565b005b3480156101a957600080fd5b506101c460048036038101906101bf9190610f24565b610ad6565b005b3480156101d257600080fd5b506101ed60048036038101906101e89190610f24565b610b0e565b6040516102059c9b9a99989796959493929190611154565b60405180910390f35b34801561021a57600080fd5b5061023560048036038101906102309190610f24565b610c22565b6040516102429190611139565b60405180910390f35b61026560048036038101906102609190610f24565b610c85565b005b34801561027357600080fd5b5061028e60048036038101906102899190610f24565b610e4a565b60405161029b9190611139565b60405180910390f35b7f000000000000000000000000000000000000000000000000000000000000000081565b6002600054141561030e576040517f08c379a0000000000000000000000000000000000000000000000000000000008152600401610305906110f9565b60405180910390fd5b600260008190555060008211610359576040517f08c379a000000000000000000000000000000000000000000000000000000000815260040161035090611099565b60405180910390fd5b6001600081548092919061036c9061144e565b91905055508373ffffffffffffffffffffffffffffffffffffffff166323b872dd3330866040518463ffffffff1660e01b81526004016103ae93929190611062565b600060405180830381600087803b1580156103c857600080fd5b505af11580156103dc573d6000803e3d6000fd5b5050505060405180610180016040528060015481526020018573ffffffffffffffffffffffffffffffffffffffff1681526020018481526020018381526020018281526020013373ffffffffffffffffffffffffffffffffffffffff168152602001600073ffffffffffffffffffffffffffffffffffffffff168152602001600073ffffffffffffffffffffffffffffffffffffffff168152602001600015158152602001600015158152602001600015158152602001600015158152506002600060015481526020019081526020016000206000820151816000015560208201518160010160006101000a81548173ffffffffffffffffffffffffffffffffffffffff021916908373ffffffffffffffffffffffffffffffffffffffff16021790555060408201518160020155606082015181600301556080820151816004015560a08201518160050160006101000a81548173ffffffffffffffffffffffffffffffffffffffff021916908373ffffffffffffffffffffffffffffffffffffffff16021790555060c08201518160060160006101000a81548173ffffffffffffffffffffffffffffffffffffffff021916908373ffffffffffffffffffffffffffffffffffffffff16021790555060e08201518160070160006101000a81548173ffffffffffffffffffffffffffffffffffffffff021916908373ffffffffffffffffffffffffffffffffffffffff1602179055506101008201518160070160146101000a81548160ff0219169083151502179055506101208201518160070160156101000a81548160ff0219169083151502179055506101408201518160070160166101000a81548160ff0219169083151502179055506101608201518160070160176101000a81548160ff0219169083151502179055509050503373ffffffffffffffffffffffffffffffffffffffff168473ffffffffffffffffffffffffffffffffffffffff167f655a0cf9c8db81512be9a76dc1c5ae5380b8816ce6ad659cd61b715e2999d59a60015486866040516106dd9392919061120e565b60405180910390a3600160008190555050505050565b60015481565b600060026000838152602001908152602001600020905060018160070160166101000a81548160ff021916908315150217905550338160060160006101000a81548173ffffffffffffffffffffffffffffffffffffffff021916908373ffffffffffffffffffffffffffffffffffffffff1602179055505050565b7f000000000000000000000000000000000000000000000000000000000000000081565b60006107a382610c22565b9050600060026000848152602001908152602001600020905060018160070160176101000a81548160ff0219169083151502179055508060050160009054906101000a900473ffffffffffffffffffffffffffffffffffffffff1673ffffffffffffffffffffffffffffffffffffffff166108fc61082085610e4a565b9081150290604051600060405180830381858888f1935050505015801561084b573d6000803e3d6000fd5b508060060160009054906101000a900473ffffffffffffffffffffffffffffffffffffffff1673ffffffffffffffffffffffffffffffffffffffff166108fc61089385610e4a565b83600301546108a2919061138a565b9081150290604051600060405180830381858888f193505050501580156108cd573d6000803e3d6000fd5b507f000000000000000000000000000000000000000000000000000000000000000073ffffffffffffffffffffffffffffffffffffffff166108fc826003015484610918919061138a565b9081150290604051600060405180830381858888f19350505050158015610943573d6000803e3d6000fd5b508060010160009054906101000a900473ffffffffffffffffffffffffffffffffffffffff1673ffffffffffffffffffffffffffffffffffffffff166323b872dd303384600201546040518463ffffffff1660e01b81526004016109a993929190611062565b600060405180830381600087803b1580156109c357600080fd5b505af11580156109d7573d6000803e3d6000fd5b505050503373ffffffffffffffffffffffffffffffffffffffff168160050160009054906101000a900473ffffffffffffffffffffffffffffffffffffffff1673ffffffffffffffffffffffffffffffffffffffff168260010160009054906101000a900473ffffffffffffffffffffffffffffffffffffffff1673ffffffffffffffffffffffffffffffffffffffff167f6c1b183f450e90e65485579ecabb15e10d8d2f7639a85d02a899b16b2ddcdd5186856002015486600301548760070160159054906101000a900460ff168860070160169054906101000a900460ff16604051610ac9959493929190611245565b60405180910390a4505050565b600060026000838152602001908152602001600020905060018160070160156101000a81548160ff0219169083151502179055505050565b60026020528060005260406000206000915090508060000154908060010160009054906101000a900473ffffffffffffffffffffffffffffffffffffffff16908060020154908060030154908060040154908060050160009054906101000a900473ffffffffffffffffffffffffffffffffffffffff16908060060160009054906101000a900473ffffffffffffffffffffffffffffffffffffffff16908060070160009054906101000a900473ffffffffffffffffffffffffffffffffffffffff16908060070160149054906101000a900460ff16908060070160159054906101000a900460ff16908060070160169054906101000a900460ff16908060070160179054906101000a900460ff1690508c565b600060647f00000000000000000000000000000000000000000000000000000000000000006064610c5391906112a9565b6002600085815260200190815260200160002060030154610c749190611330565b610c7e91906112ff565b9050919050565b60026000541415610ccb576040517f08c379a0000000000000000000000000000000000000000000000000000000008152600401610cc2906110f9565b60405180910390fd5b60026000819055506000610cde82610c22565b90506000600260008481526020019081526020016000209050600083118015610d0957506001548311155b610d48576040517f08c379a0000000000000000000000000000000000000000000000000000000008152600401610d3f906110d9565b60405180910390fd5b81341015610d8b576040517f08c379a0000000000000000000000000000000000000000000000000000000008152600401610d82906110b9565b60405180910390fd5b8060070160149054906101000a900460ff1615610ddd576040517f08c379a0000000000000000000000000000000000000000000000000000000008152600401610dd490611119565b60405180910390fd5b338160070160006101000a81548173ffffffffffffffffffffffffffffffffffffffff021916908373ffffffffffffffffffffffffffffffffffffffff16021790555060018160070160146101000a81548160ff0219169083151502179055505050600160008190555050565b6000606460026000848152602001908152602001600020600301546002600085815260200190815260200160002060040154610e869190611330565b610e9091906112ff565b9050919050565b600081359050610ea6816115e8565b92915050565b600081359050610ebb816115ff565b92915050565b60008060008060808587031215610ed757600080fd5b6000610ee587828801610e97565b9450506020610ef687828801610eac565b9350506040610f0787828801610eac565b9250506060610f1887828801610eac565b91505092959194509250565b600060208284031215610f3657600080fd5b6000610f4484828501610eac565b91505092915050565b610f56816113d0565b82525050565b610f65816113be565b82525050565b610f74816113e2565b82525050565b610f838161142a565b82525050565b6000610f96601f83611298565b9150610fa1826114f5565b602082019050919050565b6000610fb9603383611298565b9150610fc48261151e565b604082019050919050565b6000610fdc601383611298565b9150610fe78261156d565b602082019050919050565b6000610fff601f83611298565b915061100a82611596565b602082019050919050565b6000611022601183611298565b915061102d826115bf565b602082019050919050565b61104181611420565b82525050565b600060208201905061105c6000830184610f4d565b92915050565b60006060820190506110776000830186610f5c565b6110846020830185610f5c565b6110916040830184611038565b949350505050565b600060208201905081810360008301526110b281610f89565b9050919050565b600060208201905081810360008301526110d281610fac565b9050919050565b600060208201905081810360008301526110f281610fcf565b9050919050565b6000602082019050818103600083015261111281610ff2565b9050919050565b6000602082019050818103600083015261113281611015565b9050919050565b600060208201905061114e6000830184611038565b92915050565b60006101808201905061116a600083018f611038565b611177602083018e610f7a565b611184604083018d611038565b611191606083018c611038565b61119e608083018b611038565b6111ab60a083018a610f4d565b6111b860c0830189610f4d565b6111c560e0830188610f4d565b6111d3610100830187610f6b565b6111e1610120830186610f6b565b6111ef610140830185610f6b565b6111fd610160830184610f6b565b9d9c50505050505050505050505050565b60006060820190506112236000830186611038565b6112306020830185611038565b61123d6040830184611038565b949350505050565b600060a08201905061125a6000830188611038565b6112676020830187611038565b6112746040830186611038565b6112816060830185610f6b565b61128e6080830184610f6b565b9695505050505050565b600082825260208201905092915050565b60006112b482611420565b91506112bf83611420565b9250827fffffffffffffffffffffffffffffffffffffffffffffffffffffffffffffffff038211156112f4576112f3611497565b5b828201905092915050565b600061130a82611420565b915061131583611420565b925082611325576113246114c6565b5b828204905092915050565b600061133b82611420565b915061134683611420565b9250817fffffffffffffffffffffffffffffffffffffffffffffffffffffffffffffffff048311821515161561137f5761137e611497565b5b828202905092915050565b600061139582611420565b91506113a083611420565b9250828210156113b3576113b2611497565b5b828203905092915050565b60006113c982611400565b9050919050565b60006113db82611400565b9050919050565b60008115159050919050565b60006113f9826113be565b9050919050565b600073ffffffffffffffffffffffffffffffffffffffff82169050919050565b6000819050919050565b60006114358261143c565b9050919050565b600061144782611400565b9050919050565b600061145982611420565b91507fffffffffffffffffffffffffffffffffffffffffffffffffffffffffffffffff82141561148c5761148b611497565b5b600182019050919050565b7f4e487b7100000000000000000000000000000000000000000000000000000000600052601160045260246000fd5b7f4e487b7100000000000000000000000000000000000000000000000000000000600052601260045260246000fd5b7f5072696365206d7573742062652067726561746572207468616e207a65726f00600082015250565b7f4e6f7420656e6f75676820657468657220746f20636f766572206974656d207060008201527f7269636520616e64206d61726b65742066656500000000000000000000000000602082015250565b7f4974656d20646f6573206e6f7420657869737400000000000000000000000000600082015250565b7f5265656e7472616e637947756172643a207265656e7472616e742063616c6c00600082015250565b7f4974656d20616c726561647920736f6c64000000000000000000000000000000600082015250565b6115f1816113ee565b81146115fc57600080fd5b50565b61160881611420565b811461161357600080fd5b5056fea2646970667358221220e8bd2907c14696d93623f4e4a086a0f239b981b13a6dedc1903d8e2095796de564736f6c63430008040033",
  "linkReferences": {},
  "deployedLinkReferences": {}
}